{
  "contractName": "Color",
  "abi": [
    {
      "constant": true,
      "inputs": [
        {
          "name": "interfaceId",
          "type": "bytes4"
        }
      ],
      "name": "supportsInterface",
      "outputs": [
        {
          "name": "",
          "type": "bool"
        }
      ],
      "payable": false,
      "stateMutability": "view",
      "type": "function"
    },
    {
      "constant": true,
      "inputs": [],
      "name": "name",
      "outputs": [
        {
          "name": "",
          "type": "string"
        }
      ],
      "payable": false,
      "stateMutability": "view",
      "type": "function"
    },
    {
      "constant": true,
      "inputs": [
        {
          "name": "tokenId",
          "type": "uint256"
        }
      ],
      "name": "getApproved",
      "outputs": [
        {
          "name": "",
          "type": "address"
        }
      ],
      "payable": false,
      "stateMutability": "view",
      "type": "function"
    },
    {
      "constant": false,
      "inputs": [
        {
          "name": "to",
          "type": "address"
        },
        {
          "name": "tokenId",
          "type": "uint256"
        }
      ],
      "name": "approve",
      "outputs": [],
      "payable": false,
      "stateMutability": "nonpayable",
      "type": "function"
    },
    {
      "constant": true,
      "inputs": [],
      "name": "totalSupply",
      "outputs": [
        {
          "name": "",
          "type": "uint256"
        }
      ],
      "payable": false,
      "stateMutability": "view",
      "type": "function"
    },
    {
      "constant": false,
      "inputs": [
        {
          "name": "from",
          "type": "address"
        },
        {
          "name": "to",
          "type": "address"
        },
        {
          "name": "tokenId",
          "type": "uint256"
        }
      ],
      "name": "transferFrom",
      "outputs": [],
      "payable": false,
      "stateMutability": "nonpayable",
      "type": "function"
    },
    {
      "constant": true,
      "inputs": [
        {
          "name": "owner",
          "type": "address"
        },
        {
          "name": "index",
          "type": "uint256"
        }
      ],
      "name": "tokenOfOwnerByIndex",
      "outputs": [
        {
          "name": "",
          "type": "uint256"
        }
      ],
      "payable": false,
      "stateMutability": "view",
      "type": "function"
    },
    {
      "constant": true,
      "inputs": [
        {
          "name": "",
          "type": "uint256"
        }
      ],
      "name": "connections",
      "outputs": [
        {
          "name": "",
          "type": "address"
        }
      ],
      "payable": false,
      "stateMutability": "view",
      "type": "function"
    },
    {
      "constant": false,
      "inputs": [
        {
          "name": "from",
          "type": "address"
        },
        {
          "name": "to",
          "type": "address"
        },
        {
          "name": "tokenId",
          "type": "uint256"
        }
      ],
      "name": "safeTransferFrom",
      "outputs": [],
      "payable": false,
      "stateMutability": "nonpayable",
      "type": "function"
    },
    {
      "constant": true,
      "inputs": [
        {
          "name": "index",
          "type": "uint256"
        }
      ],
      "name": "tokenByIndex",
      "outputs": [
        {
          "name": "",
          "type": "uint256"
        }
      ],
      "payable": false,
      "stateMutability": "view",
      "type": "function"
    },
    {
      "constant": true,
      "inputs": [
        {
          "name": "tokenId",
          "type": "uint256"
        }
      ],
      "name": "ownerOf",
      "outputs": [
        {
          "name": "",
          "type": "address"
        }
      ],
      "payable": false,
      "stateMutability": "view",
      "type": "function"
    },
    {
      "constant": true,
      "inputs": [
        {
          "name": "owner",
          "type": "address"
        }
      ],
      "name": "balanceOf",
      "outputs": [
        {
          "name": "",
          "type": "uint256"
        }
      ],
      "payable": false,
      "stateMutability": "view",
      "type": "function"
    },
    {
      "constant": true,
      "inputs": [],
      "name": "symbol",
      "outputs": [
        {
          "name": "",
          "type": "string"
        }
      ],
      "payable": false,
      "stateMutability": "view",
      "type": "function"
    },
    {
      "constant": false,
      "inputs": [
        {
          "name": "to",
          "type": "address"
        },
        {
          "name": "approved",
          "type": "bool"
        }
      ],
      "name": "setApprovalForAll",
      "outputs": [],
      "payable": false,
      "stateMutability": "nonpayable",
      "type": "function"
    },
    {
      "constant": false,
      "inputs": [
        {
          "name": "from",
          "type": "address"
        },
        {
          "name": "to",
          "type": "address"
        },
        {
          "name": "tokenId",
          "type": "uint256"
        },
        {
          "name": "_data",
          "type": "bytes"
        }
      ],
      "name": "safeTransferFrom",
      "outputs": [],
      "payable": false,
      "stateMutability": "nonpayable",
      "type": "function"
    },
    {
      "constant": true,
      "inputs": [
        {
          "name": "tokenId",
          "type": "uint256"
        }
      ],
      "name": "tokenURI",
      "outputs": [
        {
          "name": "",
          "type": "string"
        }
      ],
      "payable": false,
      "stateMutability": "view",
      "type": "function"
    },
    {
      "constant": true,
      "inputs": [
        {
          "name": "owner",
          "type": "address"
        },
        {
          "name": "operator",
          "type": "address"
        }
      ],
      "name": "isApprovedForAll",
      "outputs": [
        {
          "name": "",
          "type": "bool"
        }
      ],
      "payable": false,
      "stateMutability": "view",
      "type": "function"
    },
    {
      "inputs": [],
      "payable": false,
      "stateMutability": "nonpayable",
      "type": "constructor"
    },
    {
      "anonymous": false,
      "inputs": [
        {
          "indexed": true,
          "name": "from",
          "type": "address"
        },
        {
          "indexed": true,
          "name": "to",
          "type": "address"
        },
        {
          "indexed": true,
          "name": "tokenId",
          "type": "uint256"
        }
      ],
      "name": "Transfer",
      "type": "event"
    },
    {
      "anonymous": false,
      "inputs": [
        {
          "indexed": true,
          "name": "owner",
          "type": "address"
        },
        {
          "indexed": true,
          "name": "approved",
          "type": "address"
        },
        {
          "indexed": true,
          "name": "tokenId",
          "type": "uint256"
        }
      ],
      "name": "Approval",
      "type": "event"
    },
    {
      "anonymous": false,
      "inputs": [
        {
          "indexed": true,
          "name": "owner",
          "type": "address"
        },
        {
          "indexed": true,
          "name": "operator",
          "type": "address"
        },
        {
          "indexed": false,
          "name": "approved",
          "type": "bool"
        }
      ],
      "name": "ApprovalForAll",
      "type": "event"
    },
    {
      "constant": false,
      "inputs": [
        {
          "name": "_connectionAddress",
          "type": "address"
        },
        {
          "name": "_uri",
          "type": "uint256"
        }
      ],
      "name": "mint",
      "outputs": [],
      "payable": false,
      "stateMutability": "nonpayable",
      "type": "function"
    },
    {
      "constant": false,
      "inputs": [
        {
          "name": "_ownerAddress",
          "type": "address"
        }
      ],
      "name": "listAllUri",
      "outputs": [
        {
          "name": "",
          "type": "uint256[]"
        }
      ],
      "payable": false,
      "stateMutability": "nonpayable",
      "type": "function"
    }
  ],
  "bytecode": "0x60806040523480156200001157600080fd5b506040518060400160405280600881526020017f6558697374656e7a0000000000000000000000000000000000000000000000008152506040518060400160405280600281526020017f4558000000000000000000000000000000000000000000000000000000000000815250620000966301ffc9a760e01b6200011860201b60201c565b620000ae6380ac58cd60e01b6200011860201b60201c565b8160059080519060200190620000c6929190620001f0565b508060069080519060200190620000df929190620001f0565b50620000f8635b5e139f60e01b6200011860201b60201c565b50506200011263780e9d6360e01b6200011860201b60201c565b62000314565b63ffffffff60e01b817bffffffffffffffffffffffffffffffffffffffffffffffffffffffff1916141562000184576040517f08c379a00000000000000000000000000000000000000000000000000000000081526004016200017b90620002e1565b60405180910390fd5b6001600080837bffffffffffffffffffffffffffffffffffffffffffffffffffffffff19167bffffffffffffffffffffffffffffffffffffffffffffffffffffffff1916815260200190815260200160002060006101000a81548160ff02191690831515021790555050565b828054600181600116156101000203166002900490600052602060002090601f016020900481019282601f106200023357805160ff191683800117855562000264565b8280016001018555821562000264579182015b828111156200026357825182559160200191906001019062000246565b5b50905062000273919062000277565b5090565b6200029c91905b80821115620002985760008160009055506001016200027e565b5090565b90565b6000620002ae601c8362000303565b91507f4552433136353a20696e76616c696420696e74657266616365206964000000006000830152602082019050919050565b60006020820190508181036000830152620002fc816200029f565b9050919050565b600082825260208201905092915050565b612b1280620003246000396000f3fe608060405234801561001057600080fd5b50600436106101215760003560e01c806342842e0e116100ad57806395d89b411161007157806395d89b4114610352578063a22cb46514610370578063b88d4fde1461038c578063c87b56dd146103a8578063e985e9c5146103d857610121565b806342842e0e146102765780634f6ccce7146102925780636352211e146102c257806370a08231146102f25780637fca85df1461032257610121565b806318160ddd116100f457806318160ddd146101c057806323b872dd146101de5780632f745c59146101fa5780633d06b9001461022a57806340c10f191461025a57610121565b806301ffc9a71461012657806306fdde0314610156578063081812fc14610174578063095ea7b3146101a4575b600080fd5b610140600480360361013b9190810190611e3b565b610408565b60405161014d9190612660565b60405180910390f35b61015e61046f565b60405161016b919061267b565b60405180910390f35b61018e60048036036101899190810190611e8d565b610511565b60405161019b91906125d7565b60405180910390f35b6101be60048036036101b99190810190611dff565b610596565b005b6101c8610751565b6040516101d5919061289d565b60405180910390f35b6101f860048036036101f39190810190611cf9565b61075e565b005b610214600480360361020f9190810190611dff565b6107be565b604051610221919061289d565b60405180910390f35b610244600480360361023f9190810190611e8d565b610867565b60405161025191906125d7565b60405180910390f35b610274600480360361026f9190810190611dff565b6108a3565b005b610290600480360361028b9190810190611cf9565b6108b1565b005b6102ac60048036036102a79190810190611e8d565b6108d1565b6040516102b9919061289d565b60405180910390f35b6102dc60048036036102d79190810190611e8d565b61093b565b6040516102e991906125d7565b60405180910390f35b61030c60048036036103079190810190611c94565b6109ed565b604051610319919061289d565b60405180910390f35b61033c60048036036103379190810190611c94565b610aac565b604051610349919061263e565b60405180910390f35b61035a610b85565b604051610367919061267b565b60405180910390f35b61038a60048036036103859190810190611dc3565b610c27565b005b6103a660048036036103a19190810190611d48565b610da8565b005b6103c260048036036103bd9190810190611e8d565b610e0a565b6040516103cf919061267b565b60405180910390f35b6103f260048036036103ed9190810190611cbd565b610f07565b6040516103ff9190612660565b60405180910390f35b6000806000837bffffffffffffffffffffffffffffffffffffffffffffffffffffffff19167bffffffffffffffffffffffffffffffffffffffffffffffffffffffff1916815260200190815260200160002060009054906101000a900460ff169050919050565b606060058054600181600116156101000203166002900480601f0160208091040260200160405190810160405280929190818152602001828054600181600116156101000203166002900480156105075780601f106104dc57610100808354040283529160200191610507565b820191906000526020600020905b8154815290600101906020018083116104ea57829003601f168201915b5050505050905090565b600061051c82610f9b565b61055b576040517f08c379a0000000000000000000000000000000000000000000000000000000008152600401610552906127dd565b60405180910390fd5b6002600083815260200190815260200160002060009054906101000a900473ffffffffffffffffffffffffffffffffffffffff169050919050565b60006105a18261093b565b90508073ffffffffffffffffffffffffffffffffffffffff168373ffffffffffffffffffffffffffffffffffffffff161415610612576040517f08c379a00000000000000000000000000000000000000000000000000000000081526004016106099061283d565b60405180910390fd5b8073ffffffffffffffffffffffffffffffffffffffff1661063161100d565b73ffffffffffffffffffffffffffffffffffffffff161480610660575061065f8161065a61100d565b610f07565b5b61069f576040517f08c379a00000000000000000000000000000000000000000000000000000000081526004016106969061275d565b60405180910390fd5b826002600084815260200190815260200160002060006101000a81548173ffffffffffffffffffffffffffffffffffffffff021916908373ffffffffffffffffffffffffffffffffffffffff160217905550818373ffffffffffffffffffffffffffffffffffffffff168273ffffffffffffffffffffffffffffffffffffffff167f8c5be1e5ebec7d5bd14f71427d1e84f3dd0314c0f7b2291e5b200ac8c7c3b92560405160405180910390a4505050565b6000600a80549050905090565b61076f61076961100d565b82611015565b6107ae576040517f08c379a00000000000000000000000000000000000000000000000000000000081526004016107a59061285d565b60405180910390fd5b6107b98383836110f3565b505050565b60006107c9836109ed565b821061080a576040517f08c379a00000000000000000000000000000000000000000000000000000000081526004016108019061269d565b60405180910390fd5b600860008473ffffffffffffffffffffffffffffffffffffffff1673ffffffffffffffffffffffffffffffffffffffff168152602001908152602001600020828154811061085457fe5b9060005260206000200154905092915050565b600c818154811061087457fe5b906000526020600020016000915054906101000a900473ffffffffffffffffffffffffffffffffffffffff1681565b6108ad8282611117565b5050565b6108cc83838360405180602001604052806000815250610da8565b505050565b60006108db610751565b821061091c576040517f08c379a00000000000000000000000000000000000000000000000000000000081526004016109139061287d565b60405180910390fd5b600a828154811061092957fe5b90600052602060002001549050919050565b6000806001600084815260200190815260200160002060009054906101000a900473ffffffffffffffffffffffffffffffffffffffff169050600073ffffffffffffffffffffffffffffffffffffffff168173ffffffffffffffffffffffffffffffffffffffff1614156109e4576040517f08c379a00000000000000000000000000000000000000000000000000000000081526004016109db9061279d565b60405180910390fd5b80915050919050565b60008073ffffffffffffffffffffffffffffffffffffffff168273ffffffffffffffffffffffffffffffffffffffff161415610a5e576040517f08c379a0000000000000000000000000000000000000000000000000000000008152600401610a559061277d565b60405180910390fd5b610aa5600360008473ffffffffffffffffffffffffffffffffffffffff1673ffffffffffffffffffffffffffffffffffffffff168152602001908152602001600020611138565b9050919050565b60606000610ab9836109ed565b9050606080600d9080519060200190610ad3929190611b39565b5060008090505b82811015610b2a576000610aee86836107be565b9050600d819080600181540180825580915050906001820390600052602060002001600090919290919091505550508080600101915050610ada565b50600d805480602002602001604051908101604052809291908181526020018280548015610b7757602002820191906000526020600020905b815481526020019060010190808311610b63575b505050505092505050919050565b606060068054600181600116156101000203166002900480601f016020809104026020016040519081016040528092919081815260200182805460018160011615610100020316600290048015610c1d5780601f10610bf257610100808354040283529160200191610c1d565b820191906000526020600020905b815481529060010190602001808311610c0057829003601f168201915b5050505050905090565b610c2f61100d565b73ffffffffffffffffffffffffffffffffffffffff168273ffffffffffffffffffffffffffffffffffffffff161415610c9d576040517f08c379a0000000000000000000000000000000000000000000000000000000008152600401610c949061271d565b60405180910390fd5b8060046000610caa61100d565b73ffffffffffffffffffffffffffffffffffffffff1673ffffffffffffffffffffffffffffffffffffffff16815260200190815260200160002060008473ffffffffffffffffffffffffffffffffffffffff1673ffffffffffffffffffffffffffffffffffffffff16815260200190815260200160002060006101000a81548160ff0219169083151502179055508173ffffffffffffffffffffffffffffffffffffffff16610d5761100d565b73ffffffffffffffffffffffffffffffffffffffff167f17307eab39ab6107e8899845ad3d59bd9653f200f220920489ca2b5937696c3183604051610d9c9190612660565b60405180910390a35050565b610db9610db361100d565b83611015565b610df8576040517f08c379a0000000000000000000000000000000000000000000000000000000008152600401610def9061285d565b60405180910390fd5b610e0484848484611146565b50505050565b6060610e1582610f9b565b610e54576040517f08c379a0000000000000000000000000000000000000000000000000000000008152600401610e4b9061281d565b60405180910390fd5b600760008381526020019081526020016000208054600181600116156101000203166002900480601f016020809104026020016040519081016040528092919081815260200182805460018160011615610100020316600290048015610efb5780601f10610ed057610100808354040283529160200191610efb565b820191906000526020600020905b815481529060010190602001808311610ede57829003601f168201915b50505050509050919050565b6000600460008473ffffffffffffffffffffffffffffffffffffffff1673ffffffffffffffffffffffffffffffffffffffff16815260200190815260200160002060008373ffffffffffffffffffffffffffffffffffffffff1673ffffffffffffffffffffffffffffffffffffffff16815260200190815260200160002060009054906101000a900460ff16905092915050565b6000806001600084815260200190815260200160002060009054906101000a900473ffffffffffffffffffffffffffffffffffffffff169050600073ffffffffffffffffffffffffffffffffffffffff168173ffffffffffffffffffffffffffffffffffffffff161415915050919050565b600033905090565b600061102082610f9b565b61105f576040517f08c379a00000000000000000000000000000000000000000000000000000000081526004016110569061273d565b60405180910390fd5b600061106a8361093b565b90508073ffffffffffffffffffffffffffffffffffffffff168473ffffffffffffffffffffffffffffffffffffffff1614806110d957508373ffffffffffffffffffffffffffffffffffffffff166110c184610511565b73ffffffffffffffffffffffffffffffffffffffff16145b806110ea57506110e98185610f07565b5b91505092915050565b6110fe8383836111a2565b61110883826113d1565b611112828261156f565b505050565b6111218282611636565b61112b828261156f565b611134816117e8565b5050565b600081600001549050919050565b6111518484846110f3565b61115d84848484611834565b61119c576040517f08c379a0000000000000000000000000000000000000000000000000000000008152600401611193906126bd565b60405180910390fd5b50505050565b8273ffffffffffffffffffffffffffffffffffffffff166111c28261093b565b73ffffffffffffffffffffffffffffffffffffffff1614611218576040517f08c379a000000000000000000000000000000000000000000000000000000000815260040161120f906127fd565b60405180910390fd5b600073ffffffffffffffffffffffffffffffffffffffff168273ffffffffffffffffffffffffffffffffffffffff161415611288576040517f08c379a000000000000000000000000000000000000000000000000000000000815260040161127f906126fd565b60405180910390fd5b61129181611952565b6112d8600360008573ffffffffffffffffffffffffffffffffffffffff1673ffffffffffffffffffffffffffffffffffffffff168152602001908152602001600020611a10565b61131f600360008473ffffffffffffffffffffffffffffffffffffffff1673ffffffffffffffffffffffffffffffffffffffff168152602001908152602001600020611a33565b816001600083815260200190815260200160002060006101000a81548173ffffffffffffffffffffffffffffffffffffffff021916908373ffffffffffffffffffffffffffffffffffffffff160217905550808273ffffffffffffffffffffffffffffffffffffffff168473ffffffffffffffffffffffffffffffffffffffff167fddf252ad1be2c89b69c2b068fc378daa952ba7f163c4a11628f55a4df523b3ef60405160405180910390a4505050565b60006114296001600860008673ffffffffffffffffffffffffffffffffffffffff1673ffffffffffffffffffffffffffffffffffffffff16815260200190815260200160002080549050611a4990919063ffffffff16565b9050600060096000848152602001908152602001600020549050818114611516576000600860008673ffffffffffffffffffffffffffffffffffffffff1673ffffffffffffffffffffffffffffffffffffffff168152602001908152602001600020838154811061149657fe5b9060005260206000200154905080600860008773ffffffffffffffffffffffffffffffffffffffff1673ffffffffffffffffffffffffffffffffffffffff16815260200190815260200160002083815481106114ee57fe5b9060005260206000200181905550816009600083815260200190815260200160002081905550505b600860008573ffffffffffffffffffffffffffffffffffffffff1673ffffffffffffffffffffffffffffffffffffffff1681526020019081526020016000208054809190600190036115689190611b86565b5050505050565b600860008373ffffffffffffffffffffffffffffffffffffffff1673ffffffffffffffffffffffffffffffffffffffff168152602001908152602001600020805490506009600083815260200190815260200160002081905550600860008373ffffffffffffffffffffffffffffffffffffffff1673ffffffffffffffffffffffffffffffffffffffff1681526020019081526020016000208190806001815401808255809150509060018203906000526020600020016000909192909190915055505050565b600073ffffffffffffffffffffffffffffffffffffffff168273ffffffffffffffffffffffffffffffffffffffff1614156116a6576040517f08c379a000000000000000000000000000000000000000000000000000000000815260040161169d906127bd565b60405180910390fd5b6116af81610f9b565b156116ef576040517f08c379a00000000000000000000000000000000000000000000000000000000081526004016116e6906126dd565b60405180910390fd5b816001600083815260200190815260200160002060006101000a81548173ffffffffffffffffffffffffffffffffffffffff021916908373ffffffffffffffffffffffffffffffffffffffff160217905550611788600360008473ffffffffffffffffffffffffffffffffffffffff1673ffffffffffffffffffffffffffffffffffffffff168152602001908152602001600020611a33565b808273ffffffffffffffffffffffffffffffffffffffff16600073ffffffffffffffffffffffffffffffffffffffff167fddf252ad1be2c89b69c2b068fc378daa952ba7f163c4a11628f55a4df523b3ef60405160405180910390a45050565b600a80549050600b600083815260200190815260200160002081905550600a81908060018154018082558091505090600182039060005260206000200160009091929091909150555050565b60006118558473ffffffffffffffffffffffffffffffffffffffff16611a93565b611862576001905061194a565b60008473ffffffffffffffffffffffffffffffffffffffff1663150b7a0261188861100d565b8887876040518563ffffffff1660e01b81526004016118aa94939291906125f2565b602060405180830381600087803b1580156118c457600080fd5b505af11580156118d8573d6000803e3d6000fd5b505050506040513d601f19601f820116820180604052506118fc9190810190611e64565b905063150b7a0260e01b7bffffffffffffffffffffffffffffffffffffffffffffffffffffffff1916817bffffffffffffffffffffffffffffffffffffffffffffffffffffffff1916149150505b949350505050565b600073ffffffffffffffffffffffffffffffffffffffff166002600083815260200190815260200160002060009054906101000a900473ffffffffffffffffffffffffffffffffffffffff1673ffffffffffffffffffffffffffffffffffffffff1614611a0d5760006002600083815260200190815260200160002060006101000a81548173ffffffffffffffffffffffffffffffffffffffff021916908373ffffffffffffffffffffffffffffffffffffffff1602179055505b50565b611a2860018260000154611a4990919063ffffffff16565b816000018190555050565b6001816000016000828254019250508190555050565b6000611a8b83836040518060400160405280601e81526020017f536166654d6174683a207375627472616374696f6e206f766572666c6f770000815250611ade565b905092915050565b60008060007fc5d2460186f7233c927e7db2dcc703c0e500b653ca82273b7bfad8045d85a47060001b9050833f91506000801b8214158015611ad55750808214155b92505050919050565b6000838311158290611b26576040517f08c379a0000000000000000000000000000000000000000000000000000000008152600401611b1d919061267b565b60405180910390fd5b5060008385039050809150509392505050565b828054828255906000526020600020908101928215611b75579160200282015b82811115611b74578251825591602001919060010190611b59565b5b509050611b829190611bb2565b5090565b815481835581811115611bad57818360005260206000209182019101611bac9190611bb2565b5b505050565b611bd491905b80821115611bd0576000816000905550600101611bb8565b5090565b90565b600081359050611be681612a7c565b92915050565b600081359050611bfb81612a93565b92915050565b600081359050611c1081612aaa565b92915050565b600081519050611c2581612aaa565b92915050565b600082601f830112611c3c57600080fd5b8135611c4f611c4a826128e5565b6128b8565b91508082526020830160208301858383011115611c6b57600080fd5b611c76838284612a29565b50505092915050565b600081359050611c8e81612ac1565b92915050565b600060208284031215611ca657600080fd5b6000611cb484828501611bd7565b91505092915050565b60008060408385031215611cd057600080fd5b6000611cde85828601611bd7565b9250506020611cef85828601611bd7565b9150509250929050565b600080600060608486031215611d0e57600080fd5b6000611d1c86828701611bd7565b9350506020611d2d86828701611bd7565b9250506040611d3e86828701611c7f565b9150509250925092565b60008060008060808587031215611d5e57600080fd5b6000611d6c87828801611bd7565b9450506020611d7d87828801611bd7565b9350506040611d8e87828801611c7f565b925050606085013567ffffffffffffffff811115611dab57600080fd5b611db787828801611c2b565b91505092959194509250565b60008060408385031215611dd657600080fd5b6000611de485828601611bd7565b9250506020611df585828601611bec565b9150509250929050565b60008060408385031215611e1257600080fd5b6000611e2085828601611bd7565b9250506020611e3185828601611c7f565b9150509250929050565b600060208284031215611e4d57600080fd5b6000611e5b84828501611c01565b91505092915050565b600060208284031215611e7657600080fd5b6000611e8484828501611c16565b91505092915050565b600060208284031215611e9f57600080fd5b6000611ead84828501611c7f565b91505092915050565b6000611ec283836125b9565b60208301905092915050565b611ed7816129f3565b82525050565b611ee68161297f565b82525050565b6000611ef78261291e565b611f01818561294c565b9350611f0c83612911565b8060005b83811015611f3d578151611f248882611eb6565b9750611f2f8361293f565b925050600181019050611f10565b5085935050505092915050565b611f5381612991565b82525050565b6000611f6482612929565b611f6e818561295d565b9350611f7e818560208601612a38565b611f8781612a6b565b840191505092915050565b6000611f9d82612934565b611fa7818561296e565b9350611fb7818560208601612a38565b611fc081612a6b565b840191505092915050565b6000611fd8602b8361296e565b91507f455243373231456e756d657261626c653a206f776e657220696e646578206f7560008301527f74206f6620626f756e64730000000000000000000000000000000000000000006020830152604082019050919050565b600061203e60328361296e565b91507f4552433732313a207472616e7366657220746f206e6f6e20455243373231526560008301527f63656976657220696d706c656d656e74657200000000000000000000000000006020830152604082019050919050565b60006120a4601c8361296e565b91507f4552433732313a20746f6b656e20616c7265616479206d696e746564000000006000830152602082019050919050565b60006120e460248361296e565b91507f4552433732313a207472616e7366657220746f20746865207a65726f2061646460008301527f72657373000000000000000000000000000000000000000000000000000000006020830152604082019050919050565b600061214a60198361296e565b91507f4552433732313a20617070726f766520746f2063616c6c6572000000000000006000830152602082019050919050565b600061218a602c8361296e565b91507f4552433732313a206f70657261746f7220717565727920666f72206e6f6e657860008301527f697374656e7420746f6b656e00000000000000000000000000000000000000006020830152604082019050919050565b60006121f060388361296e565b91507f4552433732313a20617070726f76652063616c6c6572206973206e6f74206f7760008301527f6e6572206e6f7220617070726f76656420666f7220616c6c00000000000000006020830152604082019050919050565b6000612256602a8361296e565b91507f4552433732313a2062616c616e636520717565727920666f7220746865207a6560008301527f726f2061646472657373000000000000000000000000000000000000000000006020830152604082019050919050565b60006122bc60298361296e565b91507f4552433732313a206f776e657220717565727920666f72206e6f6e657869737460008301527f656e7420746f6b656e00000000000000000000000000000000000000000000006020830152604082019050919050565b600061232260208361296e565b91507f4552433732313a206d696e7420746f20746865207a65726f20616464726573736000830152602082019050919050565b6000612362602c8361296e565b91507f4552433732313a20617070726f76656420717565727920666f72206e6f6e657860008301527f697374656e7420746f6b656e00000000000000000000000000000000000000006020830152604082019050919050565b60006123c860298361296e565b91507f4552433732313a207472616e73666572206f6620746f6b656e2074686174206960008301527f73206e6f74206f776e00000000000000000000000000000000000000000000006020830152604082019050919050565b600061242e602f8361296e565b91507f4552433732314d657461646174613a2055524920717565727920666f72206e6f60008301527f6e6578697374656e7420746f6b656e00000000000000000000000000000000006020830152604082019050919050565b600061249460218361296e565b91507f4552433732313a20617070726f76616c20746f2063757272656e74206f776e6560008301527f72000000000000000000000000000000000000000000000000000000000000006020830152604082019050919050565b60006124fa60318361296e565b91507f4552433732313a207472616e736665722063616c6c6572206973206e6f74206f60008301527f776e6572206e6f7220617070726f7665640000000000000000000000000000006020830152604082019050919050565b6000612560602c8361296e565b91507f455243373231456e756d657261626c653a20676c6f62616c20696e646578206f60008301527f7574206f6620626f756e647300000000000000000000000000000000000000006020830152604082019050919050565b6125c2816129e9565b82525050565b6125d1816129e9565b82525050565b60006020820190506125ec6000830184611edd565b92915050565b60006080820190506126076000830187611ece565b6126146020830186611edd565b61262160408301856125c8565b81810360608301526126338184611f59565b905095945050505050565b600060208201905081810360008301526126588184611eec565b905092915050565b60006020820190506126756000830184611f4a565b92915050565b600060208201905081810360008301526126958184611f92565b905092915050565b600060208201905081810360008301526126b681611fcb565b9050919050565b600060208201905081810360008301526126d681612031565b9050919050565b600060208201905081810360008301526126f681612097565b9050919050565b60006020820190508181036000830152612716816120d7565b9050919050565b600060208201905081810360008301526127368161213d565b9050919050565b600060208201905081810360008301526127568161217d565b9050919050565b60006020820190508181036000830152612776816121e3565b9050919050565b6000602082019050818103600083015261279681612249565b9050919050565b600060208201905081810360008301526127b6816122af565b9050919050565b600060208201905081810360008301526127d681612315565b9050919050565b600060208201905081810360008301526127f681612355565b9050919050565b60006020820190508181036000830152612816816123bb565b9050919050565b6000602082019050818103600083015261283681612421565b9050919050565b6000602082019050818103600083015261285681612487565b9050919050565b60006020820190508181036000830152612876816124ed565b9050919050565b6000602082019050818103600083015261289681612553565b9050919050565b60006020820190506128b260008301846125c8565b92915050565b6000604051905081810181811067ffffffffffffffff821117156128db57600080fd5b8060405250919050565b600067ffffffffffffffff8211156128fc57600080fd5b601f19601f8301169050602081019050919050565b6000602082019050919050565b600081519050919050565b600081519050919050565b600081519050919050565b6000602082019050919050565b600082825260208201905092915050565b600082825260208201905092915050565b600082825260208201905092915050565b600061298a826129c9565b9050919050565b60008115159050919050565b60007fffffffff0000000000000000000000000000000000000000000000000000000082169050919050565b600073ffffffffffffffffffffffffffffffffffffffff82169050919050565b6000819050919050565b60006129fe82612a05565b9050919050565b6000612a1082612a17565b9050919050565b6000612a22826129c9565b9050919050565b82818337600083830152505050565b60005b83811015612a56578082015181840152602081019050612a3b565b83811115612a65576000848401525b50505050565b6000601f19601f8301169050919050565b612a858161297f565b8114612a9057600080fd5b50565b612a9c81612991565b8114612aa757600080fd5b50565b612ab38161299d565b8114612abe57600080fd5b50565b612aca816129e9565b8114612ad557600080fd5b5056fea265627a7a72305820d5aa463a871b08c9c9d667604ba6ba71b55a7540a14e94090f5caa614f68817b6c6578706572696d656e74616cf50037",
  "source": "pragma solidity ^ 0.5.0;\npragma experimental ABIEncoderV2;\n\n// import \"./ERC721Full.sol\";\nimport \"@openzeppelin/contracts/token/ERC721/ERC721Metadata.sol\";\nimport \"@openzeppelin/contracts/token/ERC721/ERC721Enumerable.sol\";\n\ncontract Color is ERC721Metadata, ERC721Enumerable {\n\n  address[] public connections;\n  uint[] tokenUriArray;\n  // mapping(string => bool) _colorExists;\n\n  constructor() ERC721Metadata(\"eXistenz\",\"EX\") public {\n  }\n\n  function mint(address _connectionAddress, uint _uri) public {\n\n  \t// return index of new push \n    // uint _id = connections.push(_connectionAddress);\n    // mint token with connection address as owner\n    _mint(_connectionAddress, _uri);\n    // uri is corresponding account address - for now!\n  \t// _setTokenURI(_id, _addressAsString);\n\n  }\n\n  function listAllUri(address _ownerAddress) public returns (uint[] memory) {\n  \t// get balance of for address \n    uint balanceOf = balanceOf(_ownerAddress);\n    uint[] memory tempTokenUriArray;\n    tokenUriArray = tempTokenUriArray;\n\n    for (uint i=0; i<balanceOf; i++) {\n    \tuint256 _tokenId = tokenOfOwnerByIndex(_ownerAddress, i);\n    \t// string memory uri = tokenURI(_tokenId);\n    \ttokenUriArray.push(_tokenId);\n\t}\n\treturn tokenUriArray;\n  }\n\n}\n",
  "sourcePath": "/Users/jasonsmellz/Documents/nft/src/contracts/Color.sol",
  "compiler": {
    "name": "solc",
    "version": "0.5.8+commit.23d335f2.Emscripten.clang"
  },
  "schemaVersion": "3.0.11",
  "updatedAt": "2019-11-09T20:01:18.409Z",
  "devdoc": {
    "methods": {
      "approve(address,uint256)": {
        "details": "Approves another address to transfer the given token ID The zero address indicates there is no approved address. There can only be one approved address per token at a given time. Can only be called by the token owner or an approved operator.",
        "params": {
          "to": "address to be approved for the given token ID",
          "tokenId": "uint256 ID of the token to be approved"
        }
      },
      "balanceOf(address)": {
        "details": "Gets the balance of the specified address.",
        "params": {
          "owner": "address to query the balance of"
        },
        "return": "uint256 representing the amount owned by the passed address"
      },
      "getApproved(uint256)": {
        "details": "Gets the approved address for a token ID, or zero if no address set Reverts if the token ID does not exist.",
        "params": {
          "tokenId": "uint256 ID of the token to query the approval of"
        },
        "return": "address currently approved for the given token ID"
      },
      "isApprovedForAll(address,address)": {
        "details": "Tells whether an operator is approved by a given owner.",
        "params": {
          "operator": "operator address which you want to query the approval of",
          "owner": "owner address which you want to query the approval of"
        },
        "return": "bool whether the given operator is approved by the given owner"
      },
      "name()": {
        "details": "Gets the token name.",
        "return": "string representing the token name"
      },
      "ownerOf(uint256)": {
        "details": "Gets the owner of the specified token ID.",
        "params": {
          "tokenId": "uint256 ID of the token to query the owner of"
        },
        "return": "address currently marked as the owner of the given token ID"
      },
      "safeTransferFrom(address,address,uint256)": {
        "details": "Safely transfers the ownership of a given token ID to another address If the target address is a contract, it must implement {IERC721Receiver-onERC721Received}, which is called upon a safe transfer, and return the magic value `bytes4(keccak256(\"onERC721Received(address,address,uint256,bytes)\"))`; otherwise, the transfer is reverted. Requires the msg.sender to be the owner, approved, or operator",
        "params": {
          "from": "current owner of the token",
          "to": "address to receive the ownership of the given token ID",
          "tokenId": "uint256 ID of the token to be transferred"
        }
      },
      "safeTransferFrom(address,address,uint256,bytes)": {
        "details": "Safely transfers the ownership of a given token ID to another address If the target address is a contract, it must implement {IERC721Receiver-onERC721Received}, which is called upon a safe transfer, and return the magic value `bytes4(keccak256(\"onERC721Received(address,address,uint256,bytes)\"))`; otherwise, the transfer is reverted. Requires the _msgSender() to be the owner, approved, or operator",
        "params": {
          "_data": "bytes data to send along with a safe transfer check",
          "from": "current owner of the token",
          "to": "address to receive the ownership of the given token ID",
          "tokenId": "uint256 ID of the token to be transferred"
        }
      },
      "setApprovalForAll(address,bool)": {
        "details": "Sets or unsets the approval of a given operator An operator is allowed to transfer all tokens of the sender on their behalf.",
        "params": {
          "approved": "representing the status of the approval to be set",
          "to": "operator address to set the approval"
        }
      },
      "supportsInterface(bytes4)": {
        "details": "See {IERC165-supportsInterface}.     * Time complexity O(1), guaranteed to always use less than 30 000 gas."
      },
      "symbol()": {
        "details": "Gets the token symbol.",
        "return": "string representing the token symbol"
      },
      "tokenByIndex(uint256)": {
        "details": "Gets the token ID at a given index of all the tokens in this contract Reverts if the index is greater or equal to the total number of tokens.",
        "params": {
          "index": "uint256 representing the index to be accessed of the tokens list"
        },
        "return": "uint256 token ID at the given index of the tokens list"
      },
      "tokenOfOwnerByIndex(address,uint256)": {
        "details": "Gets the token ID at a given index of the tokens list of the requested owner.",
        "params": {
          "index": "uint256 representing the index to be accessed of the requested tokens list",
          "owner": "address owning the tokens list to be accessed"
        },
        "return": "uint256 token ID at the given index of the tokens list owned by the requested address"
      },
      "tokenURI(uint256)": {
        "details": "Returns an URI for a given token ID. Throws if the token ID does not exist. May return an empty string.",
        "params": {
          "tokenId": "uint256 ID of the token to query"
        }
      },
      "totalSupply()": {
        "details": "Gets the total amount of tokens stored by the contract.",
        "return": "uint256 representing the total amount of tokens"
      },
      "transferFrom(address,address,uint256)": {
        "details": "Transfers the ownership of a given token ID to another address. Usage of this method is discouraged, use {safeTransferFrom} whenever possible. Requires the msg.sender to be the owner, approved, or operator.",
        "params": {
          "from": "current owner of the token",
          "to": "address to receive the ownership of the given token ID",
          "tokenId": "uint256 ID of the token to be transferred"
        }
      }
    }
  },
  "userdoc": {
    "methods": {}
  }
}