{
  "contractName": "Existenz",
  "abi": [
    {
      "constant": true,
      "inputs": [
        {
          "name": "interfaceId",
          "type": "bytes4"
        }
      ],
      "name": "supportsInterface",
      "outputs": [
        {
          "name": "",
          "type": "bool"
        }
      ],
      "payable": false,
      "stateMutability": "view",
      "type": "function"
    },
    {
      "constant": true,
      "inputs": [],
      "name": "name",
      "outputs": [
        {
          "name": "",
          "type": "string"
        }
      ],
      "payable": false,
      "stateMutability": "view",
      "type": "function"
    },
    {
      "constant": true,
      "inputs": [
        {
          "name": "tokenId",
          "type": "uint256"
        }
      ],
      "name": "getApproved",
      "outputs": [
        {
          "name": "",
          "type": "address"
        }
      ],
      "payable": false,
      "stateMutability": "view",
      "type": "function"
    },
    {
      "constant": false,
      "inputs": [
        {
          "name": "to",
          "type": "address"
        },
        {
          "name": "tokenId",
          "type": "uint256"
        }
      ],
      "name": "approve",
      "outputs": [],
      "payable": false,
      "stateMutability": "nonpayable",
      "type": "function"
    },
    {
      "constant": true,
      "inputs": [],
      "name": "totalSupply",
      "outputs": [
        {
          "name": "",
          "type": "uint256"
        }
      ],
      "payable": false,
      "stateMutability": "view",
      "type": "function"
    },
    {
      "constant": false,
      "inputs": [
        {
          "name": "from",
          "type": "address"
        },
        {
          "name": "to",
          "type": "address"
        },
        {
          "name": "tokenId",
          "type": "uint256"
        }
      ],
      "name": "transferFrom",
      "outputs": [],
      "payable": false,
      "stateMutability": "nonpayable",
      "type": "function"
    },
    {
      "constant": true,
      "inputs": [
        {
          "name": "owner",
          "type": "address"
        },
        {
          "name": "index",
          "type": "uint256"
        }
      ],
      "name": "tokenOfOwnerByIndex",
      "outputs": [
        {
          "name": "",
          "type": "uint256"
        }
      ],
      "payable": false,
      "stateMutability": "view",
      "type": "function"
    },
    {
      "constant": true,
      "inputs": [
        {
          "name": "",
          "type": "uint256"
        }
      ],
      "name": "connections",
      "outputs": [
        {
          "name": "",
          "type": "address"
        }
      ],
      "payable": false,
      "stateMutability": "view",
      "type": "function"
    },
    {
      "constant": false,
      "inputs": [
        {
          "name": "from",
          "type": "address"
        },
        {
          "name": "to",
          "type": "address"
        },
        {
          "name": "tokenId",
          "type": "uint256"
        }
      ],
      "name": "safeTransferFrom",
      "outputs": [],
      "payable": false,
      "stateMutability": "nonpayable",
      "type": "function"
    },
    {
      "constant": true,
      "inputs": [
        {
          "name": "index",
          "type": "uint256"
        }
      ],
      "name": "tokenByIndex",
      "outputs": [
        {
          "name": "",
          "type": "uint256"
        }
      ],
      "payable": false,
      "stateMutability": "view",
      "type": "function"
    },
    {
      "constant": true,
      "inputs": [
        {
          "name": "tokenId",
          "type": "uint256"
        }
      ],
      "name": "ownerOf",
      "outputs": [
        {
          "name": "",
          "type": "address"
        }
      ],
      "payable": false,
      "stateMutability": "view",
      "type": "function"
    },
    {
      "constant": true,
      "inputs": [
        {
          "name": "owner",
          "type": "address"
        }
      ],
      "name": "balanceOf",
      "outputs": [
        {
          "name": "",
          "type": "uint256"
        }
      ],
      "payable": false,
      "stateMutability": "view",
      "type": "function"
    },
    {
      "constant": true,
      "inputs": [],
      "name": "symbol",
      "outputs": [
        {
          "name": "",
          "type": "string"
        }
      ],
      "payable": false,
      "stateMutability": "view",
      "type": "function"
    },
    {
      "constant": false,
      "inputs": [
        {
          "name": "to",
          "type": "address"
        },
        {
          "name": "approved",
          "type": "bool"
        }
      ],
      "name": "setApprovalForAll",
      "outputs": [],
      "payable": false,
      "stateMutability": "nonpayable",
      "type": "function"
    },
    {
      "constant": false,
      "inputs": [
        {
          "name": "from",
          "type": "address"
        },
        {
          "name": "to",
          "type": "address"
        },
        {
          "name": "tokenId",
          "type": "uint256"
        },
        {
          "name": "_data",
          "type": "bytes"
        }
      ],
      "name": "safeTransferFrom",
      "outputs": [],
      "payable": false,
      "stateMutability": "nonpayable",
      "type": "function"
    },
    {
      "constant": true,
      "inputs": [
        {
          "name": "tokenId",
          "type": "uint256"
        }
      ],
      "name": "tokenURI",
      "outputs": [
        {
          "name": "",
          "type": "string"
        }
      ],
      "payable": false,
      "stateMutability": "view",
      "type": "function"
    },
    {
      "constant": true,
      "inputs": [
        {
          "name": "owner",
          "type": "address"
        },
        {
          "name": "operator",
          "type": "address"
        }
      ],
      "name": "isApprovedForAll",
      "outputs": [
        {
          "name": "",
          "type": "bool"
        }
      ],
      "payable": false,
      "stateMutability": "view",
      "type": "function"
    },
    {
      "inputs": [],
      "payable": false,
      "stateMutability": "nonpayable",
      "type": "constructor"
    },
    {
      "anonymous": false,
      "inputs": [
        {
          "indexed": true,
          "name": "from",
          "type": "address"
        },
        {
          "indexed": true,
          "name": "to",
          "type": "address"
        },
        {
          "indexed": true,
          "name": "tokenId",
          "type": "uint256"
        }
      ],
      "name": "Transfer",
      "type": "event"
    },
    {
      "anonymous": false,
      "inputs": [
        {
          "indexed": true,
          "name": "owner",
          "type": "address"
        },
        {
          "indexed": true,
          "name": "approved",
          "type": "address"
        },
        {
          "indexed": true,
          "name": "tokenId",
          "type": "uint256"
        }
      ],
      "name": "Approval",
      "type": "event"
    },
    {
      "anonymous": false,
      "inputs": [
        {
          "indexed": true,
          "name": "owner",
          "type": "address"
        },
        {
          "indexed": true,
          "name": "operator",
          "type": "address"
        },
        {
          "indexed": false,
          "name": "approved",
          "type": "bool"
        }
      ],
      "name": "ApprovalForAll",
      "type": "event"
    },
    {
      "constant": false,
      "inputs": [
        {
          "name": "_connectionAddress",
          "type": "address"
        },
        {
          "name": "_addressAsString",
          "type": "string"
        }
      ],
      "name": "mint",
      "outputs": [],
      "payable": false,
      "stateMutability": "nonpayable",
      "type": "function"
    },
    {
      "constant": false,
      "inputs": [
        {
          "name": "_ownerAddress",
          "type": "address"
        }
      ],
      "name": "listAllUri",
      "outputs": [
        {
          "name": "",
          "type": "string[]"
        }
      ],
      "payable": false,
      "stateMutability": "nonpayable",
      "type": "function"
    }
  ],
  "bytecode": "0x60806040523480156200001157600080fd5b506040518060400160405280600881526020017f6558697374656e7a0000000000000000000000000000000000000000000000008152506040518060400160405280600281526020017f4558000000000000000000000000000000000000000000000000000000000000815250620000966301ffc9a760e01b6200011860201b60201c565b620000ae6380ac58cd60e01b6200011860201b60201c565b8160059080519060200190620000c6929190620001f0565b508060069080519060200190620000df929190620001f0565b50620000f8635b5e139f60e01b6200011860201b60201c565b50506200011263780e9d6360e01b6200011860201b60201c565b62000314565b63ffffffff60e01b817bffffffffffffffffffffffffffffffffffffffffffffffffffffffff1916141562000184576040517f08c379a00000000000000000000000000000000000000000000000000000000081526004016200017b90620002e1565b60405180910390fd5b6001600080837bffffffffffffffffffffffffffffffffffffffffffffffffffffffff19167bffffffffffffffffffffffffffffffffffffffffffffffffffffffff1916815260200190815260200160002060006101000a81548160ff02191690831515021790555050565b828054600181600116156101000203166002900490600052602060002090601f016020900481019282601f106200023357805160ff191683800117855562000264565b8280016001018555821562000264579182015b828111156200026357825182559160200191906001019062000246565b5b50905062000273919062000277565b5090565b6200029c91905b80821115620002985760008160009055506001016200027e565b5090565b90565b6000620002ae601c8362000303565b91507f4552433136353a20696e76616c696420696e74657266616365206964000000006000830152602082019050919050565b60006020820190508181036000830152620002fc816200029f565b9050919050565b600082825260208201905092915050565b61310080620003246000396000f3fe608060405234801561001057600080fd5b50600436106101215760003560e01c80634f6ccce7116100ad578063a22cb46511610071578063a22cb46514610354578063b88d4fde14610370578063c87b56dd1461038c578063d0def521146103bc578063e985e9c5146103d857610121565b80634f6ccce7146102765780636352211e146102a657806370a08231146102d65780637fca85df1461030657806395d89b411461033657610121565b806318160ddd116100f457806318160ddd146101c057806323b872dd146101de5780632f745c59146101fa5780633d06b9001461022a57806342842e0e1461025a57610121565b806301ffc9a71461012657806306fdde0314610156578063081812fc14610174578063095ea7b3146101a4575b600080fd5b610140600480360361013b91908101906122dd565b610408565b60405161014d9190612be6565b60405180910390f35b61015e61046f565b60405161016b9190612c01565b60405180910390f35b61018e60048036036101899190810190612370565b610511565b60405161019b9190612b5d565b60405180910390f35b6101be60048036036101b991908101906122a1565b610596565b005b6101c8610751565b6040516101d59190612e43565b60405180910390f35b6101f860048036036101f39190810190612147565b61075e565b005b610214600480360361020f91908101906122a1565b6107be565b6040516102219190612e43565b60405180910390f35b610244600480360361023f9190810190612370565b610867565b6040516102519190612b5d565b60405180910390f35b610274600480360361026f9190810190612147565b6108a3565b005b610290600480360361028b9190810190612370565b6108c3565b60405161029d9190612e43565b60405180910390f35b6102c060048036036102bb9190810190612370565b61092d565b6040516102cd9190612b5d565b60405180910390f35b6102f060048036036102eb91908101906120e2565b6109df565b6040516102fd9190612e43565b60405180910390f35b610320600480360361031b91908101906120e2565b610a9e565b60405161032d9190612bc4565b60405180910390f35b61033e610cae565b60405161034b9190612c01565b60405180910390f35b61036e60048036036103699190810190612211565b610d50565b005b61038a60048036036103859190810190612196565b610ed1565b005b6103a660048036036103a19190810190612370565b610f33565b6040516103b39190612c01565b60405180910390f35b6103d660048036036103d1919081019061224d565b611030565b005b6103f260048036036103ed919081019061210b565b6110b2565b6040516103ff9190612be6565b60405180910390f35b6000806000837bffffffffffffffffffffffffffffffffffffffffffffffffffffffff19167bffffffffffffffffffffffffffffffffffffffffffffffffffffffff1916815260200190815260200160002060009054906101000a900460ff169050919050565b606060058054600181600116156101000203166002900480601f0160208091040260200160405190810160405280929190818152602001828054600181600116156101000203166002900480156105075780601f106104dc57610100808354040283529160200191610507565b820191906000526020600020905b8154815290600101906020018083116104ea57829003601f168201915b5050505050905090565b600061051c82611146565b61055b576040517f08c379a000000000000000000000000000000000000000000000000000000000815260040161055290612d63565b60405180910390fd5b6002600083815260200190815260200160002060009054906101000a900473ffffffffffffffffffffffffffffffffffffffff169050919050565b60006105a18261092d565b90508073ffffffffffffffffffffffffffffffffffffffff168373ffffffffffffffffffffffffffffffffffffffff161415610612576040517f08c379a000000000000000000000000000000000000000000000000000000000815260040161060990612de3565b60405180910390fd5b8073ffffffffffffffffffffffffffffffffffffffff166106316111b8565b73ffffffffffffffffffffffffffffffffffffffff161480610660575061065f8161065a6111b8565b6110b2565b5b61069f576040517f08c379a000000000000000000000000000000000000000000000000000000000815260040161069690612ce3565b60405180910390fd5b826002600084815260200190815260200160002060006101000a81548173ffffffffffffffffffffffffffffffffffffffff021916908373ffffffffffffffffffffffffffffffffffffffff160217905550818373ffffffffffffffffffffffffffffffffffffffff168273ffffffffffffffffffffffffffffffffffffffff167f8c5be1e5ebec7d5bd14f71427d1e84f3dd0314c0f7b2291e5b200ac8c7c3b92560405160405180910390a4505050565b6000600a80549050905090565b61076f6107696111b8565b826111c0565b6107ae576040517f08c379a00000000000000000000000000000000000000000000000000000000081526004016107a590612e03565b60405180910390fd5b6107b983838361129e565b505050565b60006107c9836109df565b821061080a576040517f08c379a000000000000000000000000000000000000000000000000000000000815260040161080190612c23565b60405180910390fd5b600860008473ffffffffffffffffffffffffffffffffffffffff1673ffffffffffffffffffffffffffffffffffffffff168152602001908152602001600020828154811061085457fe5b9060005260206000200154905092915050565b600c818154811061087457fe5b906000526020600020016000915054906101000a900473ffffffffffffffffffffffffffffffffffffffff1681565b6108be83838360405180602001604052806000815250610ed1565b505050565b60006108cd610751565b821061090e576040517f08c379a000000000000000000000000000000000000000000000000000000000815260040161090590612e23565b60405180910390fd5b600a828154811061091b57fe5b90600052602060002001549050919050565b6000806001600084815260200190815260200160002060009054906101000a900473ffffffffffffffffffffffffffffffffffffffff169050600073ffffffffffffffffffffffffffffffffffffffff168173ffffffffffffffffffffffffffffffffffffffff1614156109d6576040517f08c379a00000000000000000000000000000000000000000000000000000000081526004016109cd90612d23565b60405180910390fd5b80915050919050565b60008073ffffffffffffffffffffffffffffffffffffffff168273ffffffffffffffffffffffffffffffffffffffff161415610a50576040517f08c379a0000000000000000000000000000000000000000000000000000000008152600401610a4790612d03565b60405180910390fd5b610a97600360008473ffffffffffffffffffffffffffffffffffffffff1673ffffffffffffffffffffffffffffffffffffffff1681526020019081526020016000206112c2565b9050919050565b60606000610aab836109df565b9050606080600d9080519060200190610ac5929190611d58565b5060008090505b82811015610bc2576000610ae086836107be565b905060603073ffffffffffffffffffffffffffffffffffffffff1663c87b56dd836040518263ffffffff1660e01b8152600401610b1d9190612e43565b60006040518083038186803b158015610b3557600080fd5b505afa158015610b49573d6000803e3d6000fd5b505050506040513d6000823e3d601f19601f82011682018060405250610b72919081019061232f565b9050600d819080600181540180825580915050906001820390600052602060002001600090919290919091509080519060200190610bb1929190611db8565b505050508080600101915050610acc565b50600d805480602002602001604051908101604052809291908181526020016000905b82821015610ca1578382906000526020600020018054600181600116156101000203166002900480601f016020809104026020016040519081016040528092919081815260200182805460018160011615610100020316600290048015610c8d5780601f10610c6257610100808354040283529160200191610c8d565b820191906000526020600020905b815481529060010190602001808311610c7057829003601f168201915b505050505081526020019060010190610be5565b5050505092505050919050565b606060068054600181600116156101000203166002900480601f016020809104026020016040519081016040528092919081815260200182805460018160011615610100020316600290048015610d465780601f10610d1b57610100808354040283529160200191610d46565b820191906000526020600020905b815481529060010190602001808311610d2957829003601f168201915b5050505050905090565b610d586111b8565b73ffffffffffffffffffffffffffffffffffffffff168273ffffffffffffffffffffffffffffffffffffffff161415610dc6576040517f08c379a0000000000000000000000000000000000000000000000000000000008152600401610dbd90612ca3565b60405180910390fd5b8060046000610dd36111b8565b73ffffffffffffffffffffffffffffffffffffffff1673ffffffffffffffffffffffffffffffffffffffff16815260200190815260200160002060008473ffffffffffffffffffffffffffffffffffffffff1673ffffffffffffffffffffffffffffffffffffffff16815260200190815260200160002060006101000a81548160ff0219169083151502179055508173ffffffffffffffffffffffffffffffffffffffff16610e806111b8565b73ffffffffffffffffffffffffffffffffffffffff167f17307eab39ab6107e8899845ad3d59bd9653f200f220920489ca2b5937696c3183604051610ec59190612be6565b60405180910390a35050565b610ee2610edc6111b8565b836111c0565b610f21576040517f08c379a0000000000000000000000000000000000000000000000000000000008152600401610f1890612e03565b60405180910390fd5b610f2d848484846112d0565b50505050565b6060610f3e82611146565b610f7d576040517f08c379a0000000000000000000000000000000000000000000000000000000008152600401610f7490612dc3565b60405180910390fd5b600760008381526020019081526020016000208054600181600116156101000203166002900480601f0160208091040260200160405190810160405280929190818152602001828054600181600116156101000203166002900480156110245780601f10610ff957610100808354040283529160200191611024565b820191906000526020600020905b81548152906001019060200180831161100757829003601f168201915b50505050509050919050565b6000600c8390806001815401808255809150509060018203906000526020600020016000909192909190916101000a81548173ffffffffffffffffffffffffffffffffffffffff021916908373ffffffffffffffffffffffffffffffffffffffff16021790555090506110a3838261132c565b6110ad818361134d565b505050565b6000600460008473ffffffffffffffffffffffffffffffffffffffff1673ffffffffffffffffffffffffffffffffffffffff16815260200190815260200160002060008373ffffffffffffffffffffffffffffffffffffffff1673ffffffffffffffffffffffffffffffffffffffff16815260200190815260200160002060009054906101000a900460ff16905092915050565b6000806001600084815260200190815260200160002060009054906101000a900473ffffffffffffffffffffffffffffffffffffffff169050600073ffffffffffffffffffffffffffffffffffffffff168173ffffffffffffffffffffffffffffffffffffffff161415915050919050565b600033905090565b60006111cb82611146565b61120a576040517f08c379a000000000000000000000000000000000000000000000000000000000815260040161120190612cc3565b60405180910390fd5b60006112158361092d565b90508073ffffffffffffffffffffffffffffffffffffffff168473ffffffffffffffffffffffffffffffffffffffff16148061128457508373ffffffffffffffffffffffffffffffffffffffff1661126c84610511565b73ffffffffffffffffffffffffffffffffffffffff16145b80611295575061129481856110b2565b5b91505092915050565b6112a98383836113c1565b6112b383826115f0565b6112bd828261178e565b505050565b600081600001549050919050565b6112db84848461129e565b6112e784848484611855565b611326576040517f08c379a000000000000000000000000000000000000000000000000000000000815260040161131d90612c43565b60405180910390fd5b50505050565b6113368282611973565b611340828261178e565b61134981611b25565b5050565b61135682611146565b611395576040517f08c379a000000000000000000000000000000000000000000000000000000000815260040161138c90612d83565b60405180910390fd5b806007600084815260200190815260200160002090805190602001906113bc929190611db8565b505050565b8273ffffffffffffffffffffffffffffffffffffffff166113e18261092d565b73ffffffffffffffffffffffffffffffffffffffff1614611437576040517f08c379a000000000000000000000000000000000000000000000000000000000815260040161142e90612da3565b60405180910390fd5b600073ffffffffffffffffffffffffffffffffffffffff168273ffffffffffffffffffffffffffffffffffffffff1614156114a7576040517f08c379a000000000000000000000000000000000000000000000000000000000815260040161149e90612c83565b60405180910390fd5b6114b081611b71565b6114f7600360008573ffffffffffffffffffffffffffffffffffffffff1673ffffffffffffffffffffffffffffffffffffffff168152602001908152602001600020611c2f565b61153e600360008473ffffffffffffffffffffffffffffffffffffffff1673ffffffffffffffffffffffffffffffffffffffff168152602001908152602001600020611c52565b816001600083815260200190815260200160002060006101000a81548173ffffffffffffffffffffffffffffffffffffffff021916908373ffffffffffffffffffffffffffffffffffffffff160217905550808273ffffffffffffffffffffffffffffffffffffffff168473ffffffffffffffffffffffffffffffffffffffff167fddf252ad1be2c89b69c2b068fc378daa952ba7f163c4a11628f55a4df523b3ef60405160405180910390a4505050565b60006116486001600860008673ffffffffffffffffffffffffffffffffffffffff1673ffffffffffffffffffffffffffffffffffffffff16815260200190815260200160002080549050611c6890919063ffffffff16565b9050600060096000848152602001908152602001600020549050818114611735576000600860008673ffffffffffffffffffffffffffffffffffffffff1673ffffffffffffffffffffffffffffffffffffffff16815260200190815260200160002083815481106116b557fe5b9060005260206000200154905080600860008773ffffffffffffffffffffffffffffffffffffffff1673ffffffffffffffffffffffffffffffffffffffff168152602001908152602001600020838154811061170d57fe5b9060005260206000200181905550816009600083815260200190815260200160002081905550505b600860008573ffffffffffffffffffffffffffffffffffffffff1673ffffffffffffffffffffffffffffffffffffffff1681526020019081526020016000208054809190600190036117879190611e38565b5050505050565b600860008373ffffffffffffffffffffffffffffffffffffffff1673ffffffffffffffffffffffffffffffffffffffff168152602001908152602001600020805490506009600083815260200190815260200160002081905550600860008373ffffffffffffffffffffffffffffffffffffffff1673ffffffffffffffffffffffffffffffffffffffff1681526020019081526020016000208190806001815401808255809150509060018203906000526020600020016000909192909190915055505050565b60006118768473ffffffffffffffffffffffffffffffffffffffff16611cb2565b611883576001905061196b565b60008473ffffffffffffffffffffffffffffffffffffffff1663150b7a026118a96111b8565b8887876040518563ffffffff1660e01b81526004016118cb9493929190612b78565b602060405180830381600087803b1580156118e557600080fd5b505af11580156118f9573d6000803e3d6000fd5b505050506040513d601f19601f8201168201806040525061191d9190810190612306565b905063150b7a0260e01b7bffffffffffffffffffffffffffffffffffffffffffffffffffffffff1916817bffffffffffffffffffffffffffffffffffffffffffffffffffffffff1916149150505b949350505050565b600073ffffffffffffffffffffffffffffffffffffffff168273ffffffffffffffffffffffffffffffffffffffff1614156119e3576040517f08c379a00000000000000000000000000000000000000000000000000000000081526004016119da90612d43565b60405180910390fd5b6119ec81611146565b15611a2c576040517f08c379a0000000000000000000000000000000000000000000000000000000008152600401611a2390612c63565b60405180910390fd5b816001600083815260200190815260200160002060006101000a81548173ffffffffffffffffffffffffffffffffffffffff021916908373ffffffffffffffffffffffffffffffffffffffff160217905550611ac5600360008473ffffffffffffffffffffffffffffffffffffffff1673ffffffffffffffffffffffffffffffffffffffff168152602001908152602001600020611c52565b808273ffffffffffffffffffffffffffffffffffffffff16600073ffffffffffffffffffffffffffffffffffffffff167fddf252ad1be2c89b69c2b068fc378daa952ba7f163c4a11628f55a4df523b3ef60405160405180910390a45050565b600a80549050600b600083815260200190815260200160002081905550600a81908060018154018082558091505090600182039060005260206000200160009091929091909150555050565b600073ffffffffffffffffffffffffffffffffffffffff166002600083815260200190815260200160002060009054906101000a900473ffffffffffffffffffffffffffffffffffffffff1673ffffffffffffffffffffffffffffffffffffffff1614611c2c5760006002600083815260200190815260200160002060006101000a81548173ffffffffffffffffffffffffffffffffffffffff021916908373ffffffffffffffffffffffffffffffffffffffff1602179055505b50565b611c4760018260000154611c6890919063ffffffff16565b816000018190555050565b6001816000016000828254019250508190555050565b6000611caa83836040518060400160405280601e81526020017f536166654d6174683a207375627472616374696f6e206f766572666c6f770000815250611cfd565b905092915050565b60008060007fc5d2460186f7233c927e7db2dcc703c0e500b653ca82273b7bfad8045d85a47060001b9050833f91506000801b8214158015611cf45750808214155b92505050919050565b6000838311158290611d45576040517f08c379a0000000000000000000000000000000000000000000000000000000008152600401611d3c9190612c01565b60405180910390fd5b5060008385039050809150509392505050565b828054828255906000526020600020908101928215611da7579160200282015b82811115611da6578251829080519060200190611d96929190611e64565b5091602001919060010190611d78565b5b509050611db49190611ee4565b5090565b828054600181600116156101000203166002900490600052602060002090601f016020900481019282601f10611df957805160ff1916838001178555611e27565b82800160010185558215611e27579182015b82811115611e26578251825591602001919060010190611e0b565b5b509050611e349190611f10565b5090565b815481835581811115611e5f57818360005260206000209182019101611e5e9190611f10565b5b505050565b828054600181600116156101000203166002900490600052602060002090601f016020900481019282601f10611ea557805160ff1916838001178555611ed3565b82800160010185558215611ed3579182015b82811115611ed2578251825591602001919060010190611eb7565b5b509050611ee09190611f10565b5090565b611f0d91905b80821115611f095760008181611f009190611f35565b50600101611eea565b5090565b90565b611f3291905b80821115611f2e576000816000905550600101611f16565b5090565b90565b50805460018160011615610100020316600290046000825580601f10611f5b5750611f7a565b601f016020900490600052602060002090810190611f799190611f10565b5b50565b600081359050611f8c8161306a565b92915050565b600081359050611fa181613081565b92915050565b600081359050611fb681613098565b92915050565b600081519050611fcb81613098565b92915050565b600082601f830112611fe257600080fd5b8135611ff5611ff082612e8b565b612e5e565b9150808252602083016020830185838301111561201157600080fd5b61201c838284613017565b50505092915050565b600082601f83011261203657600080fd5b813561204961204482612eb7565b612e5e565b9150808252602083016020830185838301111561206557600080fd5b612070838284613017565b50505092915050565b600082601f83011261208a57600080fd5b815161209d61209882612eb7565b612e5e565b915080825260208301602083018583830111156120b957600080fd5b6120c4838284613026565b50505092915050565b6000813590506120dc816130af565b92915050565b6000602082840312156120f457600080fd5b600061210284828501611f7d565b91505092915050565b6000806040838503121561211e57600080fd5b600061212c85828601611f7d565b925050602061213d85828601611f7d565b9150509250929050565b60008060006060848603121561215c57600080fd5b600061216a86828701611f7d565b935050602061217b86828701611f7d565b925050604061218c868287016120cd565b9150509250925092565b600080600080608085870312156121ac57600080fd5b60006121ba87828801611f7d565b94505060206121cb87828801611f7d565b93505060406121dc878288016120cd565b925050606085013567ffffffffffffffff8111156121f957600080fd5b61220587828801611fd1565b91505092959194509250565b6000806040838503121561222457600080fd5b600061223285828601611f7d565b925050602061224385828601611f92565b9150509250929050565b6000806040838503121561226057600080fd5b600061226e85828601611f7d565b925050602083013567ffffffffffffffff81111561228b57600080fd5b61229785828601612025565b9150509250929050565b600080604083850312156122b457600080fd5b60006122c285828601611f7d565b92505060206122d3858286016120cd565b9150509250929050565b6000602082840312156122ef57600080fd5b60006122fd84828501611fa7565b91505092915050565b60006020828403121561231857600080fd5b600061232684828501611fbc565b91505092915050565b60006020828403121561234157600080fd5b600082015167ffffffffffffffff81111561235b57600080fd5b61236784828501612079565b91505092915050565b60006020828403121561238257600080fd5b6000612390848285016120cd565b91505092915050565b60006123a583836124c1565b905092915050565b6123b681612fe1565b82525050565b6123c581612f6d565b82525050565b60006123d682612ef0565b6123e08185612f29565b9350836020820285016123f285612ee3565b8060005b8581101561242e578484038952815161240f8582612399565b945061241a83612f1c565b925060208a019950506001810190506123f6565b50829750879550505050505092915050565b61244981612f7f565b82525050565b600061245a82612efb565b6124648185612f3a565b9350612474818560208601613026565b61247d81613059565b840191505092915050565b600061249382612f11565b61249d8185612f5c565b93506124ad818560208601613026565b6124b681613059565b840191505092915050565b60006124cc82612f06565b6124d68185612f4b565b93506124e6818560208601613026565b6124ef81613059565b840191505092915050565b6000612507602b83612f5c565b91507f455243373231456e756d657261626c653a206f776e657220696e646578206f7560008301527f74206f6620626f756e64730000000000000000000000000000000000000000006020830152604082019050919050565b600061256d603283612f5c565b91507f4552433732313a207472616e7366657220746f206e6f6e20455243373231526560008301527f63656976657220696d706c656d656e74657200000000000000000000000000006020830152604082019050919050565b60006125d3601c83612f5c565b91507f4552433732313a20746f6b656e20616c7265616479206d696e746564000000006000830152602082019050919050565b6000612613602483612f5c565b91507f4552433732313a207472616e7366657220746f20746865207a65726f2061646460008301527f72657373000000000000000000000000000000000000000000000000000000006020830152604082019050919050565b6000612679601983612f5c565b91507f4552433732313a20617070726f766520746f2063616c6c6572000000000000006000830152602082019050919050565b60006126b9602c83612f5c565b91507f4552433732313a206f70657261746f7220717565727920666f72206e6f6e657860008301527f697374656e7420746f6b656e00000000000000000000000000000000000000006020830152604082019050919050565b600061271f603883612f5c565b91507f4552433732313a20617070726f76652063616c6c6572206973206e6f74206f7760008301527f6e6572206e6f7220617070726f76656420666f7220616c6c00000000000000006020830152604082019050919050565b6000612785602a83612f5c565b91507f4552433732313a2062616c616e636520717565727920666f7220746865207a6560008301527f726f2061646472657373000000000000000000000000000000000000000000006020830152604082019050919050565b60006127eb602983612f5c565b91507f4552433732313a206f776e657220717565727920666f72206e6f6e657869737460008301527f656e7420746f6b656e00000000000000000000000000000000000000000000006020830152604082019050919050565b6000612851602083612f5c565b91507f4552433732313a206d696e7420746f20746865207a65726f20616464726573736000830152602082019050919050565b6000612891602c83612f5c565b91507f4552433732313a20617070726f76656420717565727920666f72206e6f6e657860008301527f697374656e7420746f6b656e00000000000000000000000000000000000000006020830152604082019050919050565b60006128f7602c83612f5c565b91507f4552433732314d657461646174613a2055524920736574206f66206e6f6e657860008301527f697374656e7420746f6b656e00000000000000000000000000000000000000006020830152604082019050919050565b600061295d602983612f5c565b91507f4552433732313a207472616e73666572206f6620746f6b656e2074686174206960008301527f73206e6f74206f776e00000000000000000000000000000000000000000000006020830152604082019050919050565b60006129c3602f83612f5c565b91507f4552433732314d657461646174613a2055524920717565727920666f72206e6f60008301527f6e6578697374656e7420746f6b656e00000000000000000000000000000000006020830152604082019050919050565b6000612a29602183612f5c565b91507f4552433732313a20617070726f76616c20746f2063757272656e74206f776e6560008301527f72000000000000000000000000000000000000000000000000000000000000006020830152604082019050919050565b6000612a8f603183612f5c565b91507f4552433732313a207472616e736665722063616c6c6572206973206e6f74206f60008301527f776e6572206e6f7220617070726f7665640000000000000000000000000000006020830152604082019050919050565b6000612af5602c83612f5c565b91507f455243373231456e756d657261626c653a20676c6f62616c20696e646578206f60008301527f7574206f6620626f756e647300000000000000000000000000000000000000006020830152604082019050919050565b612b5781612fd7565b82525050565b6000602082019050612b7260008301846123bc565b92915050565b6000608082019050612b8d60008301876123ad565b612b9a60208301866123bc565b612ba76040830185612b4e565b8181036060830152612bb9818461244f565b905095945050505050565b60006020820190508181036000830152612bde81846123cb565b905092915050565b6000602082019050612bfb6000830184612440565b92915050565b60006020820190508181036000830152612c1b8184612488565b905092915050565b60006020820190508181036000830152612c3c816124fa565b9050919050565b60006020820190508181036000830152612c5c81612560565b9050919050565b60006020820190508181036000830152612c7c816125c6565b9050919050565b60006020820190508181036000830152612c9c81612606565b9050919050565b60006020820190508181036000830152612cbc8161266c565b9050919050565b60006020820190508181036000830152612cdc816126ac565b9050919050565b60006020820190508181036000830152612cfc81612712565b9050919050565b60006020820190508181036000830152612d1c81612778565b9050919050565b60006020820190508181036000830152612d3c816127de565b9050919050565b60006020820190508181036000830152612d5c81612844565b9050919050565b60006020820190508181036000830152612d7c81612884565b9050919050565b60006020820190508181036000830152612d9c816128ea565b9050919050565b60006020820190508181036000830152612dbc81612950565b9050919050565b60006020820190508181036000830152612ddc816129b6565b9050919050565b60006020820190508181036000830152612dfc81612a1c565b9050919050565b60006020820190508181036000830152612e1c81612a82565b9050919050565b60006020820190508181036000830152612e3c81612ae8565b9050919050565b6000602082019050612e586000830184612b4e565b92915050565b6000604051905081810181811067ffffffffffffffff82111715612e8157600080fd5b8060405250919050565b600067ffffffffffffffff821115612ea257600080fd5b601f19601f8301169050602081019050919050565b600067ffffffffffffffff821115612ece57600080fd5b601f19601f8301169050602081019050919050565b6000602082019050919050565b600081519050919050565b600081519050919050565b600081519050919050565b600081519050919050565b6000602082019050919050565b600082825260208201905092915050565b600082825260208201905092915050565b600082825260208201905092915050565b600082825260208201905092915050565b6000612f7882612fb7565b9050919050565b60008115159050919050565b60007fffffffff0000000000000000000000000000000000000000000000000000000082169050919050565b600073ffffffffffffffffffffffffffffffffffffffff82169050919050565b6000819050919050565b6000612fec82612ff3565b9050919050565b6000612ffe82613005565b9050919050565b600061301082612fb7565b9050919050565b82818337600083830152505050565b60005b83811015613044578082015181840152602081019050613029565b83811115613053576000848401525b50505050565b6000601f19601f8301169050919050565b61307381612f6d565b811461307e57600080fd5b50565b61308a81612f7f565b811461309557600080fd5b50565b6130a181612f8b565b81146130ac57600080fd5b50565b6130b881612fd7565b81146130c357600080fd5b5056fea265627a7a72305820d55e9e7f8b231b0bb2887f54dbe6ccfaf9c04b1f3e51a09849fdb507579cd5ce6c6578706572696d656e74616cf50037",
  "source": "pragma solidity ^ 0.5.0;\npragma experimental ABIEncoderV2;\n\n// import \"./ERC721Full.sol\";\nimport \"@openzeppelin/contracts/token/ERC721/ERC721Metadata.sol\";\nimport \"@openzeppelin/contracts/token/ERC721/ERC721Enumerable.sol\";\n\ncontract Existenz is ERC721Metadata, ERC721Enumerable {\n\n  address[] public connections;\n  // mapping(string => bool) _colorExists;\n  string[] tokenUriArray;\n\n  constructor() ERC721Metadata(\"eXistenz\",\"EX\") public {\n  }\n\n  function mint(address _connectionAddress, string memory _addressAsString) public {\n\n  \t// return index of new push \n    uint _id = connections.push(_connectionAddress);\n    // mint token with connection address as owner\n    _mint(_connectionAddress, _id);\n    // uri is corresponding account address - for now!\n  \t_setTokenURI(_id, _addressAsString);\n\n  }\n\n  function listAllUri(address _ownerAddress) public returns (string[] memory) {\n  \t// get balance of for address \n    uint balanceOf = balanceOf(_ownerAddress);\n\n    string[] memory tempTokenUriArray;\n\ttokenUriArray = tempTokenUriArray;\n    for (uint i=0; i<balanceOf; i++) {\n    \tuint256 _tokenId = tokenOfOwnerByIndex(_ownerAddress, i);\n    \tstring memory uri = this.tokenURI(_tokenId);\n    \ttokenUriArray.push(uri);\n\t}\n\treturn tokenUriArray;\n  }\n\n}\n",
  "sourcePath": "/Users/jasonsmellz/Documents/nft/src/contracts/Existenz.sol",
  "compiler": {
    "name": "solc",
    "version": "0.5.8+commit.23d335f2.Emscripten.clang"
  },
  "schemaVersion": "3.0.11",
  "updatedAt": "2019-11-09T20:02:16.837Z",
  "devdoc": {
    "methods": {
      "approve(address,uint256)": {
        "details": "Approves another address to transfer the given token ID The zero address indicates there is no approved address. There can only be one approved address per token at a given time. Can only be called by the token owner or an approved operator.",
        "params": {
          "to": "address to be approved for the given token ID",
          "tokenId": "uint256 ID of the token to be approved"
        }
      },
      "balanceOf(address)": {
        "details": "Gets the balance of the specified address.",
        "params": {
          "owner": "address to query the balance of"
        },
        "return": "uint256 representing the amount owned by the passed address"
      },
      "getApproved(uint256)": {
        "details": "Gets the approved address for a token ID, or zero if no address set Reverts if the token ID does not exist.",
        "params": {
          "tokenId": "uint256 ID of the token to query the approval of"
        },
        "return": "address currently approved for the given token ID"
      },
      "isApprovedForAll(address,address)": {
        "details": "Tells whether an operator is approved by a given owner.",
        "params": {
          "operator": "operator address which you want to query the approval of",
          "owner": "owner address which you want to query the approval of"
        },
        "return": "bool whether the given operator is approved by the given owner"
      },
      "name()": {
        "details": "Gets the token name.",
        "return": "string representing the token name"
      },
      "ownerOf(uint256)": {
        "details": "Gets the owner of the specified token ID.",
        "params": {
          "tokenId": "uint256 ID of the token to query the owner of"
        },
        "return": "address currently marked as the owner of the given token ID"
      },
      "safeTransferFrom(address,address,uint256)": {
        "details": "Safely transfers the ownership of a given token ID to another address If the target address is a contract, it must implement {IERC721Receiver-onERC721Received}, which is called upon a safe transfer, and return the magic value `bytes4(keccak256(\"onERC721Received(address,address,uint256,bytes)\"))`; otherwise, the transfer is reverted. Requires the msg.sender to be the owner, approved, or operator",
        "params": {
          "from": "current owner of the token",
          "to": "address to receive the ownership of the given token ID",
          "tokenId": "uint256 ID of the token to be transferred"
        }
      },
      "safeTransferFrom(address,address,uint256,bytes)": {
        "details": "Safely transfers the ownership of a given token ID to another address If the target address is a contract, it must implement {IERC721Receiver-onERC721Received}, which is called upon a safe transfer, and return the magic value `bytes4(keccak256(\"onERC721Received(address,address,uint256,bytes)\"))`; otherwise, the transfer is reverted. Requires the _msgSender() to be the owner, approved, or operator",
        "params": {
          "_data": "bytes data to send along with a safe transfer check",
          "from": "current owner of the token",
          "to": "address to receive the ownership of the given token ID",
          "tokenId": "uint256 ID of the token to be transferred"
        }
      },
      "setApprovalForAll(address,bool)": {
        "details": "Sets or unsets the approval of a given operator An operator is allowed to transfer all tokens of the sender on their behalf.",
        "params": {
          "approved": "representing the status of the approval to be set",
          "to": "operator address to set the approval"
        }
      },
      "supportsInterface(bytes4)": {
        "details": "See {IERC165-supportsInterface}.     * Time complexity O(1), guaranteed to always use less than 30 000 gas."
      },
      "symbol()": {
        "details": "Gets the token symbol.",
        "return": "string representing the token symbol"
      },
      "tokenByIndex(uint256)": {
        "details": "Gets the token ID at a given index of all the tokens in this contract Reverts if the index is greater or equal to the total number of tokens.",
        "params": {
          "index": "uint256 representing the index to be accessed of the tokens list"
        },
        "return": "uint256 token ID at the given index of the tokens list"
      },
      "tokenOfOwnerByIndex(address,uint256)": {
        "details": "Gets the token ID at a given index of the tokens list of the requested owner.",
        "params": {
          "index": "uint256 representing the index to be accessed of the requested tokens list",
          "owner": "address owning the tokens list to be accessed"
        },
        "return": "uint256 token ID at the given index of the tokens list owned by the requested address"
      },
      "tokenURI(uint256)": {
        "details": "Returns an URI for a given token ID. Throws if the token ID does not exist. May return an empty string.",
        "params": {
          "tokenId": "uint256 ID of the token to query"
        }
      },
      "totalSupply()": {
        "details": "Gets the total amount of tokens stored by the contract.",
        "return": "uint256 representing the total amount of tokens"
      },
      "transferFrom(address,address,uint256)": {
        "details": "Transfers the ownership of a given token ID to another address. Usage of this method is discouraged, use {safeTransferFrom} whenever possible. Requires the msg.sender to be the owner, approved, or operator.",
        "params": {
          "from": "current owner of the token",
          "to": "address to receive the ownership of the given token ID",
          "tokenId": "uint256 ID of the token to be transferred"
        }
      }
    }
  },
  "userdoc": {
    "methods": {}
  }
}